{
  "_format": "hh-sol-artifact-1",
  "contractName": "StreamFlow",
  "sourceName": "contracts/StreamFlow.sol",
  "abi": [
    {
      "inputs": [
        {
          "internalType": "address",
          "name": "owner",
          "type": "address"
        },
        {
          "internalType": "contract ISuperfluid",
          "name": "host",
          "type": "address"
        },
        {
          "internalType": "contract IConstantFlowAgreementV1",
          "name": "cfa",
          "type": "address"
        },
        {
          "internalType": "contract ISuperToken",
          "name": "acceptedToken",
          "type": "address"
        }
      ],
      "stateMutability": "nonpayable",
      "type": "constructor"
    },
    {
      "anonymous": false,
      "inputs": [
        {
          "indexed": false,
          "internalType": "address",
          "name": "receiver",
          "type": "address"
        }
      ],
      "name": "ReceiverChanged",
      "type": "event"
    },
    {
      "inputs": [
        {
          "internalType": "contract ISuperToken",
          "name": "_superToken",
          "type": "address"
        },
        {
          "internalType": "address",
          "name": "_agreementClass",
          "type": "address"
        },
        {
          "internalType": "bytes32",
          "name": "",
          "type": "bytes32"
        },
        {
          "internalType": "bytes",
          "name": "",
          "type": "bytes"
        },
        {
          "internalType": "bytes",
          "name": "",
          "type": "bytes"
        },
        {
          "internalType": "bytes",
          "name": "_ctx",
          "type": "bytes"
        }
      ],
      "name": "afterAgreementCreated",
      "outputs": [
        {
          "internalType": "bytes",
          "name": "newCtx",
          "type": "bytes"
        }
      ],
      "stateMutability": "nonpayable",
      "type": "function"
    },
    {
      "inputs": [
        {
          "internalType": "contract ISuperToken",
          "name": "_superToken",
          "type": "address"
        },
        {
          "internalType": "address",
          "name": "_agreementClass",
          "type": "address"
        },
        {
          "internalType": "bytes32",
          "name": "",
          "type": "bytes32"
        },
        {
          "internalType": "bytes",
          "name": "",
          "type": "bytes"
        },
        {
          "internalType": "bytes",
          "name": "",
          "type": "bytes"
        },
        {
          "internalType": "bytes",
          "name": "_ctx",
          "type": "bytes"
        }
      ],
      "name": "afterAgreementTerminated",
      "outputs": [
        {
          "internalType": "bytes",
          "name": "newCtx",
          "type": "bytes"
        }
      ],
      "stateMutability": "nonpayable",
      "type": "function"
    },
    {
      "inputs": [
        {
          "internalType": "contract ISuperToken",
          "name": "_superToken",
          "type": "address"
        },
        {
          "internalType": "address",
          "name": "_agreementClass",
          "type": "address"
        },
        {
          "internalType": "bytes32",
          "name": "",
          "type": "bytes32"
        },
        {
          "internalType": "bytes",
          "name": "agreementData",
          "type": "bytes"
        },
        {
          "internalType": "bytes",
          "name": "",
          "type": "bytes"
        },
        {
          "internalType": "bytes",
          "name": "_ctx",
          "type": "bytes"
        }
      ],
      "name": "afterAgreementUpdated",
      "outputs": [
        {
          "internalType": "bytes",
          "name": "newCtx",
          "type": "bytes"
        }
      ],
      "stateMutability": "nonpayable",
      "type": "function"
    },
    {
      "inputs": [
        {
          "internalType": "string",
          "name": "answer",
          "type": "string"
        },
        {
          "internalType": "uint256",
          "name": "qId",
          "type": "uint256"
        }
      ],
      "name": "answerDoubt",
      "outputs": [],
      "stateMutability": "nonpayable",
      "type": "function"
    },
    {
      "inputs": [
        {
          "internalType": "contract ISuperToken",
          "name": "",
          "type": "address"
        },
        {
          "internalType": "address",
          "name": "",
          "type": "address"
        },
        {
          "internalType": "bytes32",
          "name": "",
          "type": "bytes32"
        },
        {
          "internalType": "bytes",
          "name": "",
          "type": "bytes"
        },
        {
          "internalType": "bytes",
          "name": "",
          "type": "bytes"
        }
      ],
      "name": "beforeAgreementCreated",
      "outputs": [
        {
          "internalType": "bytes",
          "name": "",
          "type": "bytes"
        }
      ],
      "stateMutability": "view",
      "type": "function"
    },
    {
      "inputs": [
        {
          "internalType": "contract ISuperToken",
          "name": "",
          "type": "address"
        },
        {
          "internalType": "address",
          "name": "",
          "type": "address"
        },
        {
          "internalType": "bytes32",
          "name": "",
          "type": "bytes32"
        },
        {
          "internalType": "bytes",
          "name": "",
          "type": "bytes"
        },
        {
          "internalType": "bytes",
          "name": "",
          "type": "bytes"
        }
      ],
      "name": "beforeAgreementTerminated",
      "outputs": [
        {
          "internalType": "bytes",
          "name": "",
          "type": "bytes"
        }
      ],
      "stateMutability": "view",
      "type": "function"
    },
    {
      "inputs": [
        {
          "internalType": "contract ISuperToken",
          "name": "",
          "type": "address"
        },
        {
          "internalType": "address",
          "name": "",
          "type": "address"
        },
        {
          "internalType": "bytes32",
          "name": "",
          "type": "bytes32"
        },
        {
          "internalType": "bytes",
          "name": "",
          "type": "bytes"
        },
        {
          "internalType": "bytes",
          "name": "",
          "type": "bytes"
        }
      ],
      "name": "beforeAgreementUpdated",
      "outputs": [
        {
          "internalType": "bytes",
          "name": "",
          "type": "bytes"
        }
      ],
      "stateMutability": "view",
      "type": "function"
    },
    {
      "inputs": [],
      "name": "cfaV1",
      "outputs": [
        {
          "internalType": "contract ISuperfluid",
          "name": "host",
          "type": "address"
        },
        {
          "internalType": "contract IConstantFlowAgreementV1",
          "name": "cfa",
          "type": "address"
        }
      ],
      "stateMutability": "view",
      "type": "function"
    },
    {
      "inputs": [
        {
          "internalType": "address",
          "name": "newWinner",
          "type": "address"
        }
      ],
      "name": "changeWinner",
      "outputs": [],
      "stateMutability": "nonpayable",
      "type": "function"
    },
    {
      "inputs": [],
      "name": "currentReceiver",
      "outputs": [
        {
          "internalType": "uint256",
          "name": "startTime",
          "type": "uint256"
        },
        {
          "internalType": "address",
          "name": "receiver",
          "type": "address"
        },
        {
          "internalType": "int96",
          "name": "flowRate",
          "type": "int96"
        }
      ],
      "stateMutability": "view",
      "type": "function"
    },
    {
      "inputs": [],
      "name": "declareWinner",
      "outputs": [],
      "stateMutability": "view",
      "type": "function"
    },
    {
      "inputs": [
        {
          "internalType": "uint256",
          "name": "_index",
          "type": "uint256"
        },
        {
          "internalType": "uint256",
          "name": "_ansIndex",
          "type": "uint256"
        }
      ],
      "name": "readAnsS",
      "outputs": [
        {
          "components": [
            {
              "internalType": "string",
              "name": "ans",
              "type": "string"
            },
            {
              "internalType": "address",
              "name": "answerer",
              "type": "address"
            },
            {
              "internalType": "uint256",
              "name": "upvotes",
              "type": "uint256"
            },
            {
              "internalType": "uint256",
              "name": "ansId",
              "type": "uint256"
            }
          ],
          "internalType": "struct StreamFlow.Answer",
          "name": "",
          "type": "tuple"
        }
      ],
      "stateMutability": "view",
      "type": "function"
    },
    {
      "inputs": [
        {
          "internalType": "uint256",
          "name": "_index",
          "type": "uint256"
        }
      ],
      "name": "readDoubts",
      "outputs": [
        {
          "components": [
            {
              "internalType": "address payable",
              "name": "posterAddress",
              "type": "address"
            },
            {
              "internalType": "uint256",
              "name": "quesId",
              "type": "uint256"
            },
            {
              "internalType": "string",
              "name": "heading",
              "type": "string"
            },
            {
              "internalType": "string",
              "name": "description",
              "type": "string"
            },
            {
              "internalType": "int96",
              "name": "bounty",
              "type": "int96"
            },
            {
              "internalType": "uint256",
              "name": "timeOfPosting",
              "type": "uint256"
            },
            {
              "internalType": "uint256",
              "name": "dueDate",
              "type": "uint256"
            },
            {
              "internalType": "int256",
              "name": "maxUpvote",
              "type": "int256"
            },
            {
              "internalType": "int256",
              "name": "mostUpvoteAnsIndex",
              "type": "int256"
            },
            {
              "internalType": "address",
              "name": "current_winner",
              "type": "address"
            }
          ],
          "internalType": "struct StreamFlow.Doubt",
          "name": "",
          "type": "tuple"
        }
      ],
      "stateMutability": "view",
      "type": "function"
    },
    {
      "inputs": [
        {
          "internalType": "uint256",
          "name": "doubtIndex",
          "type": "uint256"
        },
        {
          "internalType": "uint256",
          "name": "ansIndex",
          "type": "uint256"
        }
      ],
      "name": "upVote",
      "outputs": [],
      "stateMutability": "nonpayable",
      "type": "function"
    },
    {
      "inputs": [
        {
          "internalType": "string",
          "name": "_heading",
          "type": "string"
        },
        {
          "internalType": "string",
          "name": "_description",
          "type": "string"
        },
        {
          "internalType": "uint256",
          "name": "_dueDate",
          "type": "uint256"
        },
        {
          "internalType": "int96",
          "name": "_bounty",
          "type": "int96"
        }
      ],
      "name": "writeDoubt",
      "outputs": [],
      "stateMutability": "nonpayable",
      "type": "function"
    }
  ],
  "bytecode": "0x608060405260006007553480156200001657600080fd5b50604051620049f4380380620049f483398181016040528101906200003c9190620006a6565b82828286600073ffffffffffffffffffffffffffffffffffffffff168473ffffffffffffffffffffffffffffffffffffffff161415620000b3576040517f08c379a0000000000000000000000000000000000000000000000000000000008152600401620000aa9062000900565b60405180910390fd5b600073ffffffffffffffffffffffffffffffffffffffff168373ffffffffffffffffffffffffffffffffffffffff16141562000126576040517f08c379a00000000000000000000000000000000000000000000000000000000081526004016200011d90620008de565b60405180910390fd5b600073ffffffffffffffffffffffffffffffffffffffff168273ffffffffffffffffffffffffffffffffffffffff16141562000199576040517f08c379a000000000000000000000000000000000000000000000000000000000815260040162000190906200089a565b60405180910390fd5b600073ffffffffffffffffffffffffffffffffffffffff168173ffffffffffffffffffffffffffffffffffffffff1614156200020c576040517f08c379a00000000000000000000000000000000000000000000000000000000081526004016200020390620008bc565b60405180910390fd5b8373ffffffffffffffffffffffffffffffffffffffff16633ca3ad4e826040518263ffffffff1660e01b81526004016200024791906200087d565b60206040518083038186803b1580156200026057600080fd5b505afa15801562000275573d6000803e3d6000fd5b505050506040513d601f19601f820116820180604052508101906200029b919062000712565b15620002de576040517f08c379a0000000000000000000000000000000000000000000000000000000008152600401620002d59062000922565b60405180910390fd5b836000806101000a81548173ffffffffffffffffffffffffffffffffffffffff021916908373ffffffffffffffffffffffffffffffffffffffff16021790555082600160006101000a81548173ffffffffffffffffffffffffffffffffffffffff021916908373ffffffffffffffffffffffffffffffffffffffff16021790555081600260006101000a81548173ffffffffffffffffffffffffffffffffffffffff021916908373ffffffffffffffffffffffffffffffffffffffff16021790555080600360006101000a81548173ffffffffffffffffffffffffffffffffffffffff021916908373ffffffffffffffffffffffffffffffffffffffff16021790555060405180604001604052808573ffffffffffffffffffffffffffffffffffffffff1681526020018573ffffffffffffffffffffffffffffffffffffffff1663b6d200de7fa9214cc96615e0085d3bb077758db69497dc2dce3b2b1e97bc93c3d18d83efd36040518263ffffffff1660e01b815260040162000463919062000860565b60206040518083038186803b1580156200047c57600080fd5b505afa15801562000491573d6000803e3d6000fd5b505050506040513d601f19601f82011682018060405250810190620004b791906200073e565b73ffffffffffffffffffffffffffffffffffffffff16815250600460008201518160000160006101000a81548173ffffffffffffffffffffffffffffffffffffffff021916908373ffffffffffffffffffffffffffffffffffffffff16021790555060208201518160010160006101000a81548173ffffffffffffffffffffffffffffffffffffffff021916908373ffffffffffffffffffffffffffffffffffffffff16021790555090505060006410000000006404000000006401000000006001171717905060008054906101000a900473ffffffffffffffffffffffffffffffffffffffff1673ffffffffffffffffffffffffffffffffffffffff1663ad3915c8826040518263ffffffff1660e01b8152600401620005d9919062000944565b600060405180830381600087803b158015620005f457600080fd5b505af115801562000609573d6000803e3d6000fd5b5050505050505050505050505062000ba7565b6000815190506200062d8162000b0b565b92915050565b600081519050620006448162000b25565b92915050565b6000815190506200065b8162000b3f565b92915050565b600081519050620006728162000b59565b92915050565b600081519050620006898162000b73565b92915050565b600081519050620006a08162000b8d565b92915050565b60008060008060808587031215620006bd57600080fd5b6000620006cd878288016200061c565b9450506020620006e0878288016200068f565b9350506040620006f3878288016200064a565b9250506060620007068782880162000678565b91505092959194509250565b6000602082840312156200072557600080fd5b6000620007358482850162000633565b91505092915050565b6000602082840312156200075157600080fd5b6000620007618482850162000661565b91505092915050565b620007758162000992565b82525050565b620007868162000a16565b82525050565b60006200079b601d8362000961565b9150620007a88262000a3e565b602082019050919050565b6000620007c260188362000961565b9150620007cf8262000a67565b602082019050919050565b6000620007e960138362000961565b9150620007f68262000a90565b602082019050919050565b60006200081060148362000961565b91506200081d8262000ab9565b602082019050919050565b60006200083760128362000961565b9150620008448262000ae2565b602082019050919050565b6200085a8162000a0c565b82525050565b60006020820190506200087760008301846200076a565b92915050565b60006020820190506200089460008301846200077b565b92915050565b60006020820190508181036000830152620008b5816200078c565b9050919050565b60006020820190508181036000830152620008d781620007b3565b9050919050565b60006020820190508181036000830152620008f981620007da565b9050919050565b600060208201905081810360008301526200091b8162000801565b9050919050565b600060208201905081810360008301526200093d8162000828565b9050919050565b60006020820190506200095b60008301846200084f565b92915050565b600082825260208201905092915050565b60006200097f82620009ec565b9050919050565b60008115159050919050565b6000819050919050565b6000620009a98262000972565b9050919050565b6000620009bd8262000972565b9050919050565b6000620009d18262000972565b9050919050565b6000620009e58262000972565b9050919050565b600073ffffffffffffffffffffffffffffffffffffffff82169050919050565b6000819050919050565b600062000a238262000a2a565b9050919050565b600062000a3782620009ec565b9050919050565b7f6163636570746564546f6b656e206973207a65726f2061646472657373000000600082015250565b7f7265636569766572206973207a65726f20616464726573730000000000000000600082015250565b7f636661206973207a65726f206164647265737300000000000000000000000000600082015250565b7f686f7374206973207a65726f2061646472657373000000000000000000000000600082015250565b7f726563656976657220697320616e206170700000000000000000000000000000600082015250565b62000b168162000972565b811462000b2257600080fd5b50565b62000b308162000986565b811462000b3c57600080fd5b50565b62000b4a816200099c565b811462000b5657600080fd5b50565b62000b6481620009b0565b811462000b7057600080fd5b50565b62000b7e81620009c4565b811462000b8a57600080fd5b50565b62000b9881620009d8565b811462000ba457600080fd5b50565b613e3d8062000bb76000396000f3fe608060405234801561001057600080fd5b50600436106100f55760003560e01c80635f9e7d7711610097578063c802b34111610066578063c802b34114610298578063d3112b2e146102c8578063d86ed3e5146102e7578063e3853a5614610317576100f5565b80635f9e7d77146102005780637ec70a7914610230578063884d1f401461024c578063919eff901461027c576100f5565b806328d2bf94116100d357806328d2bf94146101645780632d2fe1891461018457806330d9c915146101a057806353c11f99146101d0576100f5565b806301b92a98146100fa57806314034bd21461012a578063230dbd2914610134575b600080fd5b610114600480360381019061010f9190612eb6565b610333565b6040516101219190613606565b60405180910390f35b6101326104a3565b005b61014e60048036038101906101499190612c3b565b61056b565b60405161015b91906132c1565b60405180910390f35b61016c6106a8565b60405161017b9392919061364a565b60405180910390f35b61019e60048036038101906101999190612dd6565b61082b565b005b6101ba60048036038101906101b59190612b8b565b610980565b6040516101c791906132c1565b60405180910390f35b6101ea60048036038101906101e59190612c3b565b6109bd565b6040516101f791906132c1565b60405180910390f35b61021a60048036038101906102159190612b8b565b610ad3565b60405161022791906132c1565b60405180910390f35b61024a60048036038101906102459190612d43565b610b10565b005b61026660048036038101906102619190612b8b565b610d53565b60405161027391906132c1565b60405180910390f35b61029660048036038101906102919190612eb6565b610d90565b005b6102b260048036038101906102ad9190612e2a565b611220565b6040516102bf9190613628565b60405180910390f35b6102d06114a2565b6040516102de9291906134dd565b60405180910390f35b61030160048036038101906102fc9190612c3b565b6114f4565b60405161030e91906132c1565b60405180910390f35b610331600480360381019061032c9190612a63565b611631565b005b61033b612729565b600860008481526020019081526020016000208281548110610386577f4e487b7100000000000000000000000000000000000000000000000000000000600052603260045260246000fd5b90600052602060002090600402016040518060800160405290816000820180546103af906139de565b80601f01602080910402602001604051908101604052809291908181526020018280546103db906139de565b80156104285780601f106103fd57610100808354040283529160200191610428565b820191906000526020600020905b81548152906001019060200180831161040b57829003601f168201915b505050505081526020016001820160009054906101000a900473ffffffffffffffffffffffffffffffffffffffff1673ffffffffffffffffffffffffffffffffffffffff1673ffffffffffffffffffffffffffffffffffffffff16815260200160028201548152602001600382015481525050905092915050565b60005b6006805490508110156105685742600682815481106104ee577f4e487b7100000000000000000000000000000000000000000000000000000000600052603260045260246000fd5b90600052602060002090600a020160060154101561055457600360068281548110610542577f4e487b7100000000000000000000000000000000000000000000000000000000600052603260045260246000fd5b90600052602060002090505050610555565b5b808061056090613a41565b9150506104a6565b50565b606089896105788261163d565b6105b7576040517f08c379a00000000000000000000000000000000000000000000000000000000081526004016105ae90613526565b60405180910390fd5b6105c081611697565b6105ff576040517f08c379a00000000000000000000000000000000000000000000000000000000081526004016105f690613506565b60405180910390fd5b60008054906101000a900473ffffffffffffffffffffffffffffffffffffffff1673ffffffffffffffffffffffffffffffffffffffff163373ffffffffffffffffffffffffffffffffffffffff161461068d576040517f08c379a000000000000000000000000000000000000000000000000000000000815260040161068490613566565b60405180910390fd5b6106978585611740565b925050509998505050505050505050565b60008060008073ffffffffffffffffffffffffffffffffffffffff16600360009054906101000a900473ffffffffffffffffffffffffffffffffffffffff1673ffffffffffffffffffffffffffffffffffffffff161461082657600160009054906101000a900473ffffffffffffffffffffffffffffffffffffffff1673ffffffffffffffffffffffffffffffffffffffff1663e6a1e888600260009054906101000a900473ffffffffffffffffffffffffffffffffffffffff1630600360009054906101000a900473ffffffffffffffffffffffffffffffffffffffff166040518463ffffffff1660e01b81526004016107a5939291906133c2565b60806040518083038186803b1580156107bd57600080fd5b505afa1580156107d1573d6000803e3d6000fd5b505050506040513d601f19601f820116820180604052508101906107f59190612e53565b9050508092508194505050600360009054906101000a900473ffffffffffffffffffffffffffffffffffffffff1691505b909192565b600060405180608001604052808481526020013373ffffffffffffffffffffffffffffffffffffffff16815260200160008152602001600860008581526020019081526020016000208054905081525090506008600083815260200190815260200160002081908060018154018082558091505060019003906000526020600020906004020160009091909190915060008201518160000190805190602001906108d6929190612767565b5060208201518160010160006101000a81548173ffffffffffffffffffffffffffffffffffffffff021916908373ffffffffffffffffffffffffffffffffffffffff160217905550604082015181600201556060820151816003015550506009600083815260200190815260200160002060006001600860008681526020019081526020016000208054905061096c9190613827565b815260200190815260200160002050505050565b60606040517f08c379a00000000000000000000000000000000000000000000000000000000081526004016109b4906135e6565b60405180910390fd5b606060008054906101000a900473ffffffffffffffffffffffffffffffffffffffff1673ffffffffffffffffffffffffffffffffffffffff163373ffffffffffffffffffffffffffffffffffffffff1614610a4d576040517f08c379a0000000000000000000000000000000000000000000000000000000008152600401610a4490613566565b60405180910390fd5b610a568a61163d565b1580610a685750610a6689611697565b155b15610ab95782828080601f016020809104026020016040519081016040528093929190818152602001838380828437600081840152601f19601f820116905080830192505050505050509050610ac6565b610ac38383611740565b90505b9998505050505050505050565b60606040517f08c379a0000000000000000000000000000000000000000000000000000000008152600401610b0790613546565b60405180910390fd5b60066040518061014001604052803373ffffffffffffffffffffffffffffffffffffffff168152602001600754815260200186815260200185815260200183600b0b81526020014281526020014285610b6991906137d1565b81526020017fffffffffffffffffffffffffffffffffffffffffffffffffffffffffffffffff81526020017fffffffffffffffffffffffffffffffffffffffffffffffffffffffffffffffff81526020013373ffffffffffffffffffffffffffffffffffffffff1681525090806001815401808255809150506001900390600052602060002090600a020160009091909190915060008201518160000160006101000a81548173ffffffffffffffffffffffffffffffffffffffff021916908373ffffffffffffffffffffffffffffffffffffffff160217905550602082015181600101556040820151816002019080519060200190610c6a929190612767565b506060820151816003019080519060200190610c87929190612767565b5060808201518160040160006101000a8154816bffffffffffffffffffffffff0219169083600b0b6bffffffffffffffffffffffff16021790555060a0820151816005015560c0820151816006015560e0820151816007015561010082015181600801556101208201518160090160006101000a81548173ffffffffffffffffffffffffffffffffffffffff021916908373ffffffffffffffffffffffffffffffffffffffff160217905550505060076000815480929190610d4890613a41565b919050555050505050565b60606040517f08c379a0000000000000000000000000000000000000000000000000000000008152600401610d87906135c6565b60405180910390fd5b60096000838152602001908152602001600020600082815260200190815260200160002060003373ffffffffffffffffffffffffffffffffffffffff1673ffffffffffffffffffffffffffffffffffffffff16815260200190815260200160002060009054906101000a900460ff1615610e095761121c565b600160096000848152602001908152602001600020600083815260200190815260200160002060003373ffffffffffffffffffffffffffffffffffffffff1673ffffffffffffffffffffffffffffffffffffffff16815260200190815260200160002060006101000a81548160ff021916908315150217905550600860008381526020019081526020016000208181548110610ece577f4e487b7100000000000000000000000000000000000000000000000000000000600052603260045260246000fd5b90600052602060002090600402016002016000815480929190610ef090613a41565b919050555060068281548110610f2f577f4e487b7100000000000000000000000000000000000000000000000000000000600052603260045260246000fd5b90600052602060002090600a020160070154600860008481526020019081526020016000208281548110610f8c577f4e487b7100000000000000000000000000000000000000000000000000000000600052603260045260246000fd5b906000526020600020906004020160020154131561121b57600860008381526020019081526020016000208181548110610fef577f4e487b7100000000000000000000000000000000000000000000000000000000600052603260045260246000fd5b9060005260206000209060040201600201546006838154811061103b577f4e487b7100000000000000000000000000000000000000000000000000000000600052603260045260246000fd5b90600052602060002090600a020160070181905550806006838154811061108b577f4e487b7100000000000000000000000000000000000000000000000000000000600052603260045260246000fd5b90600052602060002090600a0201600801819055506008600083815260200190815260200160002081815481106110eb577f4e487b7100000000000000000000000000000000000000000000000000000000600052603260045260246000fd5b906000526020600020906004020160010160009054906101000a900473ffffffffffffffffffffffffffffffffffffffff1660068381548110611157577f4e487b7100000000000000000000000000000000000000000000000000000000600052603260045260246000fd5b90600052602060002090600a020160090160006101000a81548173ffffffffffffffffffffffffffffffffffffffff021916908373ffffffffffffffffffffffffffffffffffffffff16021790555061121a600683815481106111e3577f4e487b7100000000000000000000000000000000000000000000000000000000600052603260045260246000fd5b90600052602060002090600a020160090160009054906101000a900473ffffffffffffffffffffffffffffffffffffffff16611631565b5b5b5050565b6112286127ed565b60068281548110611262577f4e487b7100000000000000000000000000000000000000000000000000000000600052603260045260246000fd5b90600052602060002090600a0201604051806101400160405290816000820160009054906101000a900473ffffffffffffffffffffffffffffffffffffffff1673ffffffffffffffffffffffffffffffffffffffff1673ffffffffffffffffffffffffffffffffffffffff168152602001600182015481526020016002820180546112ec906139de565b80601f0160208091040260200160405190810160405280929190818152602001828054611318906139de565b80156113655780601f1061133a57610100808354040283529160200191611365565b820191906000526020600020905b81548152906001019060200180831161134857829003601f168201915b5050505050815260200160038201805461137e906139de565b80601f01602080910402602001604051908101604052809291908181526020018280546113aa906139de565b80156113f75780601f106113cc576101008083540402835291602001916113f7565b820191906000526020600020905b8154815290600101906020018083116113da57829003601f168201915b505050505081526020016004820160009054906101000a9004600b0b600b0b600b0b8152602001600582015481526020016006820154815260200160078201548152602001600882015481526020016009820160009054906101000a900473ffffffffffffffffffffffffffffffffffffffff1673ffffffffffffffffffffffffffffffffffffffff1673ffffffffffffffffffffffffffffffffffffffff16815250509050919050565b60048060000160009054906101000a900473ffffffffffffffffffffffffffffffffffffffff16908060010160009054906101000a900473ffffffffffffffffffffffffffffffffffffffff16905082565b606089896115018261163d565b611540576040517f08c379a000000000000000000000000000000000000000000000000000000000815260040161153790613526565b60405180910390fd5b61154981611697565b611588576040517f08c379a000000000000000000000000000000000000000000000000000000000815260040161157f90613506565b60405180910390fd5b60008054906101000a900473ffffffffffffffffffffffffffffffffffffffff1673ffffffffffffffffffffffffffffffffffffffff163373ffffffffffffffffffffffffffffffffffffffff1614611616576040517f08c379a000000000000000000000000000000000000000000000000000000000815260040161160d90613566565b60405180910390fd5b6116208585611740565b925050509998505050505050505050565b61163a81611fbf565b50565b6000600260009054906101000a900473ffffffffffffffffffffffffffffffffffffffff1673ffffffffffffffffffffffffffffffffffffffff168273ffffffffffffffffffffffffffffffffffffffff16149050919050565b60007fa9214cc96615e0085d3bb077758db69497dc2dce3b2b1e97bc93c3d18d83efd38273ffffffffffffffffffffffffffffffffffffffff16637730599e6040518163ffffffff1660e01b815260040160206040518083038186803b15801561170057600080fd5b505afa158015611714573d6000803e3d6000fd5b505050506040513d601f19601f820116820180604052508101906117389190612ab5565b149050919050565b606082828080601f016020809104026020016040519081016040528093929190818152602001838380828437600081840152601f19601f8201169050808301925050505050505090506000600160009054906101000a900473ffffffffffffffffffffffffffffffffffffffff1673ffffffffffffffffffffffffffffffffffffffff1663e8e7e2d1600260009054906101000a900473ffffffffffffffffffffffffffffffffffffffff16306040518363ffffffff1660e01b815260040161180a929190613399565b60206040518083038186803b15801561182257600080fd5b505afa158015611836573d6000803e3d6000fd5b505050506040513d601f19601f8201168201806040525081019061185a9190612d1a565b90506000600160009054906101000a900473ffffffffffffffffffffffffffffffffffffffff1673ffffffffffffffffffffffffffffffffffffffff1663e6a1e888600260009054906101000a900473ffffffffffffffffffffffffffffffffffffffff1630600360009054906101000a900473ffffffffffffffffffffffffffffffffffffffff166040518463ffffffff1660e01b8152600401611901939291906133c2565b60806040518083038186803b15801561191957600080fd5b505afa15801561192d573d6000803e3d6000fd5b505050506040513d601f19601f820116820180604052508101906119519190612e53565b5050915050600081836119649190613751565b90506000600b0b81600b0b1415611b875760008054906101000a900473ffffffffffffffffffffffffffffffffffffffff1673ffffffffffffffffffffffffffffffffffffffff16634329d293600160009054906101000a900473ffffffffffffffffffffffffffffffffffffffff1663b4b333c660e01b600260009054906101000a900473ffffffffffffffffffffffffffffffffffffffff1630600360009054906101000a900473ffffffffffffffffffffffffffffffffffffffff16600067ffffffffffffffff811115611a64577f4e487b7100000000000000000000000000000000000000000000000000000000600052604160045260246000fd5b6040519080825280601f01601f191660200182016040528015611a965781602001600182028036833780820191505090505b50604051602401611aaa94939291906133f9565b604051602081830303815290604052907bffffffffffffffffffffffffffffffffffffffffffffffffffffffff19166020820180517bffffffffffffffffffffffffffffffffffffffffffffffffffffffff8381831617835250505050876040518463ffffffff1660e01b8152600401611b2693929190613326565b600060405180830381600087803b158015611b4057600080fd5b505af1158015611b54573d6000803e3d6000fd5b505050506040513d6000823e3d601f19601f82011682018060405250810190611b7d9190612b1f565b5080945050611fb6565b6000600b0b82600b0b14611da75760008054906101000a900473ffffffffffffffffffffffffffffffffffffffff1673ffffffffffffffffffffffffffffffffffffffff16634329d293600160009054906101000a900473ffffffffffffffffffffffffffffffffffffffff166350209a6260e01b600260009054906101000a900473ffffffffffffffffffffffffffffffffffffffff16600360009054906101000a900473ffffffffffffffffffffffffffffffffffffffff1686600067ffffffffffffffff811115611c84577f4e487b7100000000000000000000000000000000000000000000000000000000600052604160045260246000fd5b6040519080825280601f01601f191660200182016040528015611cb65781602001600182028036833780820191505090505b50604051602401611cca9493929190613445565b604051602081830303815290604052907bffffffffffffffffffffffffffffffffffffffffffffffffffffffff19166020820180517bffffffffffffffffffffffffffffffffffffffffffffffffffffffff8381831617835250505050876040518463ffffffff1660e01b8152600401611d4693929190613326565b600060405180830381600087803b158015611d6057600080fd5b505af1158015611d74573d6000803e3d6000fd5b505050506040513d6000823e3d601f19601f82011682018060405250810190611d9d9190612b1f565b5080945050611fb5565b60008054906101000a900473ffffffffffffffffffffffffffffffffffffffff1673ffffffffffffffffffffffffffffffffffffffff16634329d293600160009054906101000a900473ffffffffffffffffffffffffffffffffffffffff166362fc305e60e01b600260009054906101000a900473ffffffffffffffffffffffffffffffffffffffff16600360009054906101000a900473ffffffffffffffffffffffffffffffffffffffff1686600067ffffffffffffffff811115611e96577f4e487b7100000000000000000000000000000000000000000000000000000000600052604160045260246000fd5b6040519080825280601f01601f191660200182016040528015611ec85781602001600182028036833780820191505090505b50604051602401611edc9493929190613445565b604051602081830303815290604052907bffffffffffffffffffffffffffffffffffffffffffffffffffffffff19166020820180517bffffffffffffffffffffffffffffffffffffffffffffffffffffffff8381831617835250505050876040518463ffffffff1660e01b8152600401611f5893929190613326565b600060405180830381600087803b158015611f7257600080fd5b505af1158015611f86573d6000803e3d6000fd5b505050506040513d6000823e3d601f19601f82011682018060405250810190611faf9190612b1f565b50809450505b5b50505092915050565b600073ffffffffffffffffffffffffffffffffffffffff168173ffffffffffffffffffffffffffffffffffffffff16141561202f576040517f08c379a000000000000000000000000000000000000000000000000000000000815260040161202690613586565b60405180910390fd5b60008054906101000a900473ffffffffffffffffffffffffffffffffffffffff1673ffffffffffffffffffffffffffffffffffffffff16633ca3ad4e826040518263ffffffff1660e01b8152600401612088919061337e565b60206040518083038186803b1580156120a057600080fd5b505afa1580156120b4573d6000803e3d6000fd5b505050506040513d601f19601f820116820180604052508101906120d89190612a8c565b15612118576040517f08c379a000000000000000000000000000000000000000000000000000000000815260040161210f906135a6565b60405180910390fd5b600360009054906101000a900473ffffffffffffffffffffffffffffffffffffffff1673ffffffffffffffffffffffffffffffffffffffff168173ffffffffffffffffffffffffffffffffffffffff16141561217357612557565b6000600160009054906101000a900473ffffffffffffffffffffffffffffffffffffffff1673ffffffffffffffffffffffffffffffffffffffff1663e6a1e888600260009054906101000a900473ffffffffffffffffffffffffffffffffffffffff1630600360009054906101000a900473ffffffffffffffffffffffffffffffffffffffff166040518463ffffffff1660e01b8152600401612218939291906133c2565b60806040518083038186803b15801561223057600080fd5b505afa158015612244573d6000803e3d6000fd5b505050506040513d601f19601f820116820180604052508101906122689190612e53565b5050915050600081600b0b13156124bb5760008054906101000a900473ffffffffffffffffffffffffffffffffffffffff1673ffffffffffffffffffffffffffffffffffffffff166339255d5b600160009054906101000a900473ffffffffffffffffffffffffffffffffffffffff1663b4b333c660e01b600260009054906101000a900473ffffffffffffffffffffffffffffffffffffffff1630600360009054906101000a900473ffffffffffffffffffffffffffffffffffffffff16600067ffffffffffffffff811115612368577f4e487b7100000000000000000000000000000000000000000000000000000000600052604160045260246000fd5b6040519080825280601f01601f19166020018201604052801561239a5781602001600182028036833780820191505090505b506040516024016123ae94939291906133f9565b604051602081830303815290604052907bffffffffffffffffffffffffffffffffffffffffffffffffffffffff19166020820180517bffffffffffffffffffffffffffffffffffffffffffffffffffffffff83818316178352505050506040518363ffffffff1660e01b81526004016124289291906132e3565b600060405180830381600087803b15801561244257600080fd5b505af1158015612456573d6000803e3d6000fd5b505050506040513d6000823e3d601f19601f8201168201806040525081019061247f9190612ade565b506124ba82600260009054906101000a900473ffffffffffffffffffffffffffffffffffffffff1683600461255a909392919063ffffffff16565b5b81600360006101000a81548173ffffffffffffffffffffffffffffffffffffffff021916908373ffffffffffffffffffffffffffffffffffffffff1602179055507f7dfb1d59db37a3fd2e15e796c189dcab714cdbb18650d68a1de58f8fa60718c9600360009054906101000a900473ffffffffffffffffffffffffffffffffffffffff1660405161254d91906132a6565b60405180910390a1505b50565b8360000160009054906101000a900473ffffffffffffffffffffffffffffffffffffffff1673ffffffffffffffffffffffffffffffffffffffff166339255d5b8560010160009054906101000a900473ffffffffffffffffffffffffffffffffffffffff166362fc305e60e01b858786600067ffffffffffffffff81111561260b577f4e487b7100000000000000000000000000000000000000000000000000000000600052604160045260246000fd5b6040519080825280601f01601f19166020018201604052801561263d5781602001600182028036833780820191505090505b506040516024016126519493929190613491565b604051602081830303815290604052907bffffffffffffffffffffffffffffffffffffffffffffffffffffffff19166020820180517bffffffffffffffffffffffffffffffffffffffffffffffffffffffff83818316178352505050506040518363ffffffff1660e01b81526004016126cb9291906132e3565b600060405180830381600087803b1580156126e557600080fd5b505af11580156126f9573d6000803e3d6000fd5b505050506040513d6000823e3d601f19601f820116820180604052508101906127229190612ade565b5050505050565b604051806080016040528060608152602001600073ffffffffffffffffffffffffffffffffffffffff16815260200160008152602001600081525090565b828054612773906139de565b90600052602060002090601f01602090048101928261279557600085556127dc565b82601f106127ae57805160ff19168380011785556127dc565b828001600101855582156127dc579182015b828111156127db5782518255916020019190600101906127c0565b5b5090506127e9919061286f565b5090565b604051806101400160405280600073ffffffffffffffffffffffffffffffffffffffff1681526020016000815260200160608152602001606081526020016000600b0b815260200160008152602001600081526020016000815260200160008152602001600073ffffffffffffffffffffffffffffffffffffffff1681525090565b5b80821115612888576000816000905550600101612870565b5090565b600061289f61289a846136a6565b613681565b9050828152602081018484840111156128b757600080fd5b6128c28482856139ab565b509392505050565b60006128dd6128d8846136d7565b613681565b9050828152602081018484840111156128f557600080fd5b61290084828561399c565b509392505050565b60008135905061291781613d7d565b92915050565b60008151905061292c81613d94565b92915050565b60008135905061294181613dab565b92915050565b60008151905061295681613dab565b92915050565b60008083601f84011261296e57600080fd5b8235905067ffffffffffffffff81111561298757600080fd5b60208301915083600182028301111561299f57600080fd5b9250929050565b600082601f8301126129b757600080fd5b81516129c784826020860161288c565b91505092915050565b6000813590506129df81613dc2565b92915050565b6000813590506129f481613dd9565b92915050565b600081519050612a0981613dd9565b92915050565b600082601f830112612a2057600080fd5b8135612a308482602086016128ca565b91505092915050565b600081359050612a4881613df0565b92915050565b600081519050612a5d81613df0565b92915050565b600060208284031215612a7557600080fd5b6000612a8384828501612908565b91505092915050565b600060208284031215612a9e57600080fd5b6000612aac8482850161291d565b91505092915050565b600060208284031215612ac757600080fd5b6000612ad584828501612947565b91505092915050565b600060208284031215612af057600080fd5b600082015167ffffffffffffffff811115612b0a57600080fd5b612b16848285016129a6565b91505092915050565b60008060408385031215612b3257600080fd5b600083015167ffffffffffffffff811115612b4c57600080fd5b612b58858286016129a6565b925050602083015167ffffffffffffffff811115612b7557600080fd5b612b81858286016129a6565b9150509250929050565b600080600080600080600060a0888a031215612ba657600080fd5b6000612bb48a828b016129d0565b9750506020612bc58a828b01612908565b9650506040612bd68a828b01612932565b955050606088013567ffffffffffffffff811115612bf357600080fd5b612bff8a828b0161295c565b9450945050608088013567ffffffffffffffff811115612c1e57600080fd5b612c2a8a828b0161295c565b925092505092959891949750929550565b600080600080600080600080600060c08a8c031215612c5957600080fd5b6000612c678c828d016129d0565b9950506020612c788c828d01612908565b9850506040612c898c828d01612932565b97505060608a013567ffffffffffffffff811115612ca657600080fd5b612cb28c828d0161295c565b965096505060808a013567ffffffffffffffff811115612cd157600080fd5b612cdd8c828d0161295c565b945094505060a08a013567ffffffffffffffff811115612cfc57600080fd5b612d088c828d0161295c565b92509250509295985092959850929598565b600060208284031215612d2c57600080fd5b6000612d3a848285016129fa565b91505092915050565b60008060008060808587031215612d5957600080fd5b600085013567ffffffffffffffff811115612d7357600080fd5b612d7f87828801612a0f565b945050602085013567ffffffffffffffff811115612d9c57600080fd5b612da887828801612a0f565b9350506040612db987828801612a39565b9250506060612dca878288016129e5565b91505092959194509250565b60008060408385031215612de957600080fd5b600083013567ffffffffffffffff811115612e0357600080fd5b612e0f85828601612a0f565b9250506020612e2085828601612a39565b9150509250929050565b600060208284031215612e3c57600080fd5b6000612e4a84828501612a39565b91505092915050565b60008060008060808587031215612e6957600080fd5b6000612e7787828801612a4e565b9450506020612e88878288016129fa565b9350506040612e9987828801612a4e565b9250506060612eaa87828801612a4e565b91505092959194509250565b60008060408385031215612ec957600080fd5b6000612ed785828601612a39565b9250506020612ee885828601612a39565b9150509250929050565b612efb8161386d565b82525050565b612f0a8161385b565b82525050565b612f198161385b565b82525050565b6000612f2a82613708565b612f34818561371e565b9350612f448185602086016139ab565b612f4d81613b17565b840191505092915050565b612f61816138e8565b82525050565b612f708161390c565b82525050565b612f7f81613930565b82525050565b612f8e81613954565b82525050565b612f9d81613978565b82525050565b612fac816138a7565b82525050565b612fbb816138b1565b82525050565b612fca816138b1565b82525050565b6000612fdb82613713565b612fe5818561372f565b9350612ff58185602086016139ab565b612ffe81613b17565b840191505092915050565b6000613016602183613740565b915061302182613b28565b604082019050919050565b6000613039601f83613740565b915061304482613b77565b602082019050919050565b600061305c603383613740565b915061306782613ba0565b604082019050919050565b600061307f602283613740565b915061308a82613bef565b604082019050919050565b60006130a260028361371e565b91506130ad82613c3e565b602082019050919050565b60006130c5601c83613740565b91506130d082613c67565b602082019050919050565b60006130e8602283613740565b91506130f382613c90565b604082019050919050565b600061310b602f83613740565b915061311682613cdf565b604082019050919050565b600061312e602f83613740565b915061313982613d2e565b604082019050919050565b600060808301600083015184820360008601526131618282612fd0565b91505060208301516131766020860182612f01565b5060408301516131896040860182613288565b50606083015161319c6060860182613288565b508091505092915050565b6000610140830160008301516131c06000860182612ef2565b5060208301516131d36020860182613288565b50604083015184820360408601526131eb8282612fd0565b915050606083015184820360608601526132058282612fd0565b915050608083015161321a6080860182612fb2565b5060a083015161322d60a0860182613288565b5060c083015161324060c0860182613288565b5060e083015161325360e0860182612fa3565b50610100830151613268610100860182612fa3565b5061012083015161327d610120860182612f01565b508091505092915050565b613291816138de565b82525050565b6132a0816138de565b82525050565b60006020820190506132bb6000830184612f10565b92915050565b600060208201905081810360008301526132db8184612f1f565b905092915050565b60006060820190506132f86000830185612f58565b818103602083015261330a8184612f1f565b9050818103604083015261331d81613095565b90509392505050565b600060808201905061333b6000830186612f58565b818103602083015261334d8185612f1f565b9050818103604083015261336081613095565b905081810360608301526133748184612f1f565b9050949350505050565b60006020820190506133936000830184612f67565b92915050565b60006040820190506133ae6000830185612f76565b6133bb6020830184612f10565b9392505050565b60006060820190506133d76000830186612f76565b6133e46020830185612f10565b6133f16040830184612f10565b949350505050565b600060808201905061340e6000830187612f76565b61341b6020830186612f10565b6134286040830185612f10565b818103606083015261343a8184612f1f565b905095945050505050565b600060808201905061345a6000830187612f76565b6134676020830186612f10565b6134746040830185612fc1565b81810360608301526134868184612f1f565b905095945050505050565b60006080820190506134a66000830187612f85565b6134b36020830186612f10565b6134c06040830185612fc1565b81810360608301526134d28184612f1f565b905095945050505050565b60006040820190506134f26000830185612f94565b6134ff6020830184612f58565b9392505050565b6000602082019050818103600083015261351f81613009565b9050919050565b6000602082019050818103600083015261353f8161302c565b9050919050565b6000602082019050818103600083015261355f8161304f565b9050919050565b6000602082019050818103600083015261357f81613072565b9050919050565b6000602082019050818103600083015261359f816130b8565b9050919050565b600060208201905081810360008301526135bf816130db565b9050919050565b600060208201905081810360008301526135df816130fe565b9050919050565b600060208201905081810360008301526135ff81613121565b9050919050565b600060208201905081810360008301526136208184613144565b905092915050565b6000602082019050818103600083015261364281846131a7565b905092915050565b600060608201905061365f6000830186613297565b61366c6020830185612f10565b6136796040830184612fc1565b949350505050565b600061368b61369c565b90506136978282613a10565b919050565b6000604051905090565b600067ffffffffffffffff8211156136c1576136c0613ae8565b5b6136ca82613b17565b9050602081019050919050565b600067ffffffffffffffff8211156136f2576136f1613ae8565b5b6136fb82613b17565b9050602081019050919050565b600081519050919050565b600081519050919050565b600082825260208201905092915050565b600082825260208201905092915050565b600082825260208201905092915050565b600061375c826138b1565b9150613767836138b1565b9250816b7fffffffffffffffffffffff0383136000831215161561378e5761378d613a8a565b5b817fffffffffffffffffffffffffffffffffffffffff8000000000000000000000000383126000831216156137c6576137c5613a8a565b5b828201905092915050565b60006137dc826138de565b91506137e7836138de565b9250827fffffffffffffffffffffffffffffffffffffffffffffffffffffffffffffffff0382111561381c5761381b613a8a565b5b828201905092915050565b6000613832826138de565b915061383d836138de565b9250828210156138505761384f613a8a565b5b828203905092915050565b6000613866826138be565b9050919050565b6000613878826138be565b9050919050565b60008115159050919050565b6000819050919050565b60006138a08261385b565b9050919050565b6000819050919050565b600081600b0b9050919050565b600073ffffffffffffffffffffffffffffffffffffffff82169050919050565b6000819050919050565b60006138f3826138fa565b9050919050565b6000613905826138be565b9050919050565b60006139178261391e565b9050919050565b6000613929826138be565b9050919050565b600061393b82613942565b9050919050565b600061394d826138be565b9050919050565b600061395f82613966565b9050919050565b6000613971826138be565b9050919050565b60006139838261398a565b9050919050565b6000613995826138be565b9050919050565b82818337600083830152505050565b60005b838110156139c95780820151818401526020810190506139ae565b838111156139d8576000848401525b50505050565b600060028204905060018216806139f657607f821691505b60208210811415613a0a57613a09613ab9565b5b50919050565b613a1982613b17565b810181811067ffffffffffffffff82111715613a3857613a37613ae8565b5b80604052505050565b6000613a4c826138de565b91507fffffffffffffffffffffffffffffffffffffffffffffffffffffffffffffffff821415613a7f57613a7e613a8a565b5b600182019050919050565b7f4e487b7100000000000000000000000000000000000000000000000000000000600052601160045260246000fd5b7f4e487b7100000000000000000000000000000000000000000000000000000000600052602260045260246000fd5b7f4e487b7100000000000000000000000000000000000000000000000000000000600052604160045260246000fd5b6000601f19601f8301169050919050565b7f5265646972656374416c6c3a206f6e6c7920434641763120737570706f72746560008201527f6400000000000000000000000000000000000000000000000000000000000000602082015250565b7f5265646972656374416c6c3a206e6f7420616363657074656420746f6b656e00600082015250565b7f556e737570706f727465642063616c6c6261636b202d20204265666f7265204160008201527f677265656d656e74205465726d696e6174656400000000000000000000000000602082015250565b7f5265646972656374416c6c3a20737570706f7274206f6e6c79206f6e6520686f60008201527f7374000000000000000000000000000000000000000000000000000000000000602082015250565b7f3078000000000000000000000000000000000000000000000000000000000000600082015250565b7f4e6577207265636569766572206973207a65726f206164647265737300000000600082015250565b7f4e65772072656365697665722063616e206e6f7420626520612073757065724160008201527f7070000000000000000000000000000000000000000000000000000000000000602082015250565b7f556e737570706f727465642063616c6c6261636b202d204265666f726520416760008201527f7265656d656e7420757064617465640000000000000000000000000000000000602082015250565b7f556e737570706f727465642063616c6c6261636b202d204265666f726520416760008201527f7265656d656e7420437265617465640000000000000000000000000000000000602082015250565b613d868161385b565b8114613d9157600080fd5b50565b613d9d8161387f565b8114613da857600080fd5b50565b613db48161388b565b8114613dbf57600080fd5b50565b613dcb81613895565b8114613dd657600080fd5b50565b613de2816138b1565b8114613ded57600080fd5b50565b613df9816138de565b8114613e0457600080fd5b5056fea2646970667358221220c7b83eeed3fca9fe52b1652c9e6306d011525a4e8201074c0e6bd6c85998940b64736f6c63430008040033",
  "linkReferences": {},
  "deployedLinkReferences": {}
}